S01700002E2F44656275672F726F626F7461726D2E73313904
S315200000000248854600F05EF8FEE7C04600C00120A3
S3152000001080B582B000AF7860396080231B017A6892
S31520000020D2B25A7080231B013A68D2B29A708023CA
S315200000301B01802212011278D2B240210A43D2B289
S315200000401A70C04680231B01DB78DBB21A007B685E
S315200000509A4207D080231B011B79DBB21A003B682A
S315200000609A42EFD180231B01802212011278D2B24C
S3152000007040218A43D2B21A70C046BD4602B080BD26
S3152000008080B500AF05231800BD4680BD80B500AF02
S3152000009000210020FFF7BCFFC046BD4680BD80B5CD
S315200000A084B000AF78607B6898470300FB60034B01
S315200000B0034A1A60C046BD4604B080BD0100000256
S315200000C08D00002080B500AF034B1800FFF7E7FF37
S311200000D0C046BD4680BDC0468100002011
S70520000000DA
