S01700002E2F44656275672F6B6579626F6172642E73313919
S315200000000248854600F082F9FEE7C04600C001207E
S3152000001080B500AF2A4B2A4A12681204120C1A60C5
S31520000020274B274A1268AA21C9050A431A60254A7E
S31520000030244B1B889BB2FF210B409BB21380214986
S31520000040204B1B889BB2E022D20113439BB20B802C
S315200000501D4B1D4A12681204120C1A601A4B1A4ABA
S3152000006012681A490A431A60154B154A1268120C6F
S3152000007012041A60124B124A126815490A431A6072
S31520000080104A104B1B889BB2FF218B439BB21380D7
S315200000900C4A0C4B1B889BB277210B439BB21380D7
S315200000A0094B094A1268120C12041A60064B064ABA
S315200000B0126808490A431A60C046BD4680BDC0463C
S315200000C0000C0240040C02400C0C02400000AAAABC
S315200000D055550000AAAA000080B582B000AF0200E4
S315200000E0FB1D1A70FB1D1B78042B18D89A000E4B8B
S315200000F0D3181B689F460D4B00221A700FE00B4B3E
S3152000010010221A700BE0094B20221A7007E0074BC9
S3152000011040221A7003E0054B80221A70C046C04662
S31520000120BD4602B080BDC0462C030020150C0240FF
S3152000013080B582B000AF104AFB1D12781A70FB1DE5
S315200001401B78012B01D1012312E0FB1D1B78022B0A
S3152000015001D102230CE0FB1D1B78042B01D10423C3
S3152000016006E0FB1D1B78082B01D1082300E00023A5
S315200001701800BD4602B080BD110C024090B587B074
S3152000018000AF3B1D1F4A13CA13C312681A601723F8
S31520000190FB1801221A7027E01723FB181B7818007A
S315200001A0FFF79AFF1623FC18FFF7C2FF0300237000
S315200001B01623FB181B78002B0FD00020FFF78CFF8F
S315200001C01723FB181B78013B9A001623FB181B7874
S315200001D0013BD3183A1DD35C0FE01723FB181A787E
S315200001E01723FB1801321A701723FB181B78042BD0
S315200001F0D2D90020FFF770FFFF231800BD4607B0B5
S3152000020090BDC0464003002080B582B000AF0200FA
S31520000210FB1D1A703C4AFB1D1B781370FB1D1B78B7
S31520000220002B02D1384B3F221A70FB1D1B78012B65
S3152000023002D1354B06221A70FB1D1B78022B02D1E8
S31520000240314B5B221A70FB1D1B78032B02D12E4BE0
S315200002504F221A70FB1D1B78042B02D12A4B7222C7
S315200002601A70FB1D1B78052B02D1274B6D221A70A5
S31520000270FB1D1B78062B02D1234B7D221A70FB1DFA
S315200002801B78072B02D1204B07221A70FB1D1B78E7
S31520000290082B02D11C4B7F221A70FB1D1B78092BC1
S315200002A002D1194B67221A70FB1D1B780A2B02D12B
S315200002B0154BBB221A70FB1D1B780B2B02D1124B40
S315200002C07F221A70FB1D1B780C2B02D10E4B392274
S315200002D01A70FB1D1B780D2B02D10B4B3F221A7077
S315200002E0FB1D1B780E2B02D1074B79221A70FB1DA2
S315200002F01B780F2B02D1044B71221A70C0461800AE
S31520000300BD4602B080BDC046140C024090B583B0F5
S3152000031000AFFFF77DFEFC1DFFF730FF03002370C3
S31520000320FB1D1B781800FFF76FFFF4E7F60000208F
S31520000330FE000020060100200E01002016010020EC
S315200003400102030A0405060B0708090C0E000F0D0F
S70520000000DA
