S01700002E2F44656275672F6B6579626F6172642E73313919
S315200000000248854600F0CCF8FEE7C04600C0012035
S3152000001080B500AF164B164A12681204120C1A60ED
S31520000020134B134A1268AA21C9050A431A60114ABA
S31520000030104B1B889BB2FF210B409BB213800D49AE
S315200000400C4B1B889BB2E022D20113439BB20B8040
S31520000050094B094A12681204120C1A60064B064A0A
S31520000060126806490A431A60C046BD4680BDC0468E
S31520000070000C0240040C02400C0C02400000AAAA0C
S3152000008080B582B000AF0200FB1D1A70FB1D1B78E5
S31520000090022B0CD002DC012B05D014E0032B0AD056
S315200000A0042B0CD00FE00A4B10221A700BE0084BE1
S315200000B020221A7007E0064B40221A7003E0044BF8
S315200000C080221A70C046C046BD4602B080BDC046DA
S315200000D0150C024080B582B000AF104AFB1D127885
S315200000E01A70FB1D1B78012B01D1012312E0FB1D89
S315200000F01B78022B01D102230CE0FB1D1B78042B5D
S3152000010001D1042306E0FB1D1B78082B01D108230F
S3152000011000E000231800BD4602B080BD110C02404D
S3152000012090B587B000AF3B1D1C4A13CA13C3126893
S315200001301A601723FB1801221A7024E01723FB18D4
S315200001401B781800FFF79CFF1623FC18FFF7C2FF49
S31520000150030023701623FB181B78002B0CD01723C3
S31520000160FB181B78013B9A001623FB181B78013BD2
S31520000170D3183A1DD35C0CE01723FB181A781723E3
S31520000180FB1801321A701723FB181B78042BD5D9BC
S31520000190FF231800BD4607B090BDC046B801002019
S315200001A090B583B000AFFFF733FFFC1DFFF7B8FF14
S315200001B003002370F9E7C0460102030A0405060B73
S30D200001C00708090C0E000F0DC3
S70520000000DA
