S01F00002E2F44656275672F666C6970666C6F705F6972715F61636B2E733139CD
S315200000000248854600F098F8FEE7C04600C0012069
S3152000001080B500AF164B1B68012213400AD0154B42
S315200000201B78DBB20133DAB2124B1A70104B012265
S315200000301A601AE00E4B1B680222134006D00D4BA5
S3152000004000221A700A4B02221A600EE0084B1B6827
S315200000500422134009D0074B1B78DBB2DB43DAB20C
S31520000060044B1A70024B04221A60C046BD4680BD5E
S31520000070143C01405401002080B500AF224B224A97
S315200000801268120C12041A601F4B1F4A12681F496D
S315200000900A431A601E4B00221A601E4B1D4A126824
S315200000A0120B12031A601B4B1A4A12681A490A438A
S315200000B01A601A4B194A126807210A431A60184B0C
S315200000C0174A126807210A431A60164B164A1A6005
S315200000D0164B154A1A60164B134A1A60154B154AC9
S315200000E01268802149000A431A60124B114A12688D
S315200000F080210A431A600F4B0E4A126840210A4398
S315200001001A60C046BD4680BD000C02405555000011
S31520000110001002400838014044040000003C014021
S315200001200C3C014060C00120110000205CC0012071
S3152000013058C0012000E100E080B500AFFFF79CFF2A
S31520000140024A034B1B78DBB21370F9E7140C02400A
S30D2000015054010020000000000C
S70520000000DA
