S01D00002E2F44656275672F67726170686963646973706C61792E73313990
S315200000000648854600F0ABF9FEE7024B024A1A6025
S31520000010C046C046001002405555555500C0012027
S3152000002080B500AF0C4B00221A600C4B31221A60AF
S315200000300B4B00221A60084B05221A60C046064B5D
S315200000401A6880235B021340F9D0034B00221A6002
S31520000050C046BD4680BDC04610E000E014E000E08A
S3152000006018E000E080B582B000AF786007E0FFF7C7
S31520000070D7FFFFF7D5FFFFF7D3FFFFF7D1FF7B6849
S315200000805A1E7A60002BF2D1C046BD4602B080BD12
S3152000009080B582B000AF78607B68FA229200534325
S315200000A01800FFF7DFFFC046BD4602B080BD80B511
S315200000B000AFFFF7B5FFFFF7B3FFC046BD4680BDD3
S315200000C080B582B000AF0200FB1D1A700949094BAA
S315200000D01B78DBB25AB2FB1D1B785BB2042083432C
S315200000E05BB213435BB2DBB20B70C046BD4602B0B7
S315200000F080BDC0461410024080B582B000AF020019
S31520000100FB1D1A700849084B1B78DBB25BB2FA1D3F
S31520000110127852B2D24352B213405BB2DBB20B70AA
S31520000120C046BD4602B080BD1410024080B582B0E4
S3152000013000AF0200FB1D1A70FB1D1B78002B06D199
S315200001400820FFF7D9FF1020FFF7D6FF05E008208B
S31520000150FFF7B6FF1020FFF7B3FFC046BD4602B03B
S3152000016080BD80B500AF4020FFF7C6FF114B124A75
S315200001701A600120FFF7C0FF0220FFF7A1FF09E068
S315200001804020FFF79DFFFFF792FF4020FFF7B4FFC7
S31520000190FFF78DFF094B1B78DBB25BB2002BEFDB41
S315200001A04020FFF78DFF034B054A1A60C046BD4627
S315200001B080BDC04600100240555500001110024077
S315200001C05555555580B584B000AF78604020FFF76F
S315200001D093FF1C4B1C4A1A600120FFF771FF022077
S315200001E0FFF76EFF7B68DBB21800FFF79FFFFFF774
S315200001F05EFF4020FFF764FFFFF759FF134A0F23E6
S31520000200FB1812781A704020FFF776FF0D4B104A24
S315200002101A607B68082B05D10820FFF787FFFFF7B8
S31520000220A0FF07E07B68102B04D11020FFF77EFF8C
S31520000230FFF797FF0F23FB181B781800BD4604B065
S3152000024080BDC046001002405555000011100240E6
S315200002505555555580B582B000AF02003960FB1D5B
S315200002601A70154AFB1D1B7813703B68DBB2180009
S31520000270FFF75CFFFFF71BFF4020FFF721FFFFF78B
S3152000028016FF4020FFF738FF0820FFF74FFFFFF744
S3152000029068FF1020FFF74AFFFFF763FF064B002297
S315200002A01A704020FFF70CFF0020FFF73FFFC046E3
S315200002B0BD4602B080BDC0461510024080B582B052
S315200002C000AF786039604020FFF716FF3B68DBB24D
S315200002D01800FFF72BFF0120FFF70EFF0220FFF784
S315200002E00BFF7B68DBB23A6811001800FFF7B2FFFC
S315200002F0C046BD4602B080BD80B582B000AF7860F2
S3152000030039604020FFF7DCFE3B68DBB21800FFF7C0
S315200003100DFF0120FFF7D4FE0220FFF7EDFE7B68DC
S31520000320DBB23A6811001800FFF794FFC046BD46BD
S3152000033002B080BD80B582B000AF0200FB1D1A70EE
S31520000340FB1D1B781800FFF73DFFFB1D1B781800CF
S31520000350FFF738FF03001800BD4602B080BD80B508
S30D2000036000AFC046BD4680BD7A
S70520000000DA
