S01D00002E2F44656275672F67726170686963646973706C61792E73313990
S315200000000248854600F046FAFEE7C04600C00120B9
S3152000001080B500AF074B084A1A60084B00221A70B9
S31520000020074B00221A70074B00221A70C046BD46A5
S3152000003080BDC0460010024055555555151002404A
S31520000040141002401110024080B500AF0C4B002264
S315200000501A600C4B31221A600B4B00221A60084B97
S3152000006005221A60C046064B1A6880235B0213409D
S31520000070F9D0034B00221A60C046BD4680BDC0465B
S3152000008010E000E014E000E018E000E080B582B067
S3152000009000AF786007E0FFF7D7FFFFF7D5FFFFF740
S315200000A0D3FFFFF7D1FF7B685A1E7A60002BF2D16F
S315200000B0C046BD4602B080BD80B582B000AF786034
S315200000C07B681800FFF7E2FFC046BD4602B080BD40
S315200000D080B500AFFFF7B8FFFFF7B6FFC046BD46B5
S315200000E080BD80B582B000AF0200FB1D1A700949A1
S315200000F0084B1B78DBB25AB2FB1D1B785BB204207F
S3152000010083435BB213435BB2DBB20B70C046BD4682
S3152000011002B080BD1410024080B582B000AF02004C
S31520000120FB1D1A700849084B1B78DBB25BB2FA1D1F
S31520000130127852B2D24352B213405BB2DBB20B708A
S31520000140C046BD4602B080BD1410024080B582B0C4
S3152000015000AF0200FB1D1A70FB1D1B78002B06D179
S315200001600820FFF7D9FF1020FFF7D6FF1FE0FB1D61
S315200001701B78182B06D10820FFF7B3FF1020FFF7B6
S31520000180B0FF14E0FB1D1B78082B06D10820FFF7D3
S31520000190A8FF1020FFF7C0FF09E0FB1D1B78102BDE
S315200001A005D10820FFF7B8FF1020FFF79AFFC046B9
S315200001B0BD4602B080BD80B500AF4020FFF7ACFF42
S315200001C0114B124A1A600120FFF7A6FF0220FFF703
S315200001D088FF09E04020FFF784FFFFF779FF4020E2
S315200001E0FFF79AFFFFF774FF094B1B78DBB25BB270
S315200001F0002BEFDB4020FFF774FF034B054A1A6004
S31520000200C046BD4680BDC046001002405555000080
S31520000210111002405555555580B584B000AF0200E7
S31520000220FB1D1A704020FFF777FF1D4B1D4A1A60F1
S315200002300120FFF756FF0220FFF753FFFB1D1B7817
S315200002401800FFF783FFFFF743FF4020FFF749FF22
S31520000250FFF73EFF144A0F23FB1812781A7040202E
S31520000260FFF75AFF0E4B114A1A60FB1D1B78082B0D
S3152000027005D10820FFF76AFFFFF79DFF08E0FB1D69
S315200002801B78102B04D11020FFF760FFFFF793FF98
S315200002900F23FB181B781800BD4604B080BDC0464E
S315200002A00010024055550000111002405555555575
S315200002B080B582B000AF0200FB1D1A70BB1D0A1C60
S315200002C01A701A4AFB1D1B781370BB1D1B78180069
S315200002D0FFF73CFFFFF7FCFE4020FFF702FFFFF78A
S315200002E0F7FE4020FFF718FFBB1D1B78082213409E
S315200002F004D00820FFF72AFFFFF75DFFBB1D1B7800
S315200003001022134004D01020FFF720FFFFF753FFE1
S31520000310064B00221A704020FFF7E3FE0020FFF76D
S3152000032015FFC046BD4602B080BDC046151002402E
S3152000033080B582B000AF0200FB1D1A70BB1D0A1CDF
S315200003401A704020FFF7E8FEBB1D1B781800FFF748
S31520000350FDFE0120FFF7E0FE0220FFF7DDFEBB1DBC
S315200003601A78FB1D1B7811001800FFF7A1FFC04665
S31520000370BD4602B080BD80B582B000AF0200FB1D35
S315200003801A70BB1D0A1C1A704020FFF7AAFEBB1D5F
S315200003901B781800FFF7DAFE0120FFF7A2FE0220E5
S315200003A0FFF7BAFEBB1D1A78FB1D1B78110018003B
S315200003B0FFF77EFFC046BD4602B080BD80B582B045
S315200003C000AF0200FB1D1A70FB1D1B781800FFF7FB
S315200003D023FFFB1D1B781800FFF71EFF03001800E4
S315200003E0BD4602B080BD80B500AF4020FFF779FE44
S315200003F00A20FFF74BFE7820FFF78EFE1E20FFF720
S315200004005BFE2020FFF76DFE18213E20FFF790FFB0
S3152000041018213F20FFF78CFF1821C020FFF788FF07
S3152000042018214020FFF784FF1821B820FFF780FF0E
S315200004300020FFF78BFEC046BD4680BD80B582B04A
S3152000044000AF00237B601EE07B685BB248225242ED
S3152000045013435BB2DBB218211800FFF769FF18219E
S315200004604020FFF765FF00233B6006E018210020AF
S31520000470FFF781FF3B6801333B603B683E2BF5DD90
S315200004807B6801337B607B68062BDDDDC046BD467D
S3152000049002B080BD80B500AFFFF7BAFDFFF7A3FF1E
S315200004A018214A20FFF744FF1821B920FFF740FF03
S315200004B01821FF20FFF7FCFEC046BD4680BDC04682
S70520000000DA
