S02400002E2F44656275672F666C6970666C6F705F6972715F766563746F7265642E7331399B
S315200000000248854600F0A6F8FEE7C04600C001205B
S3152000001080B500AF074B1B78DBB20133DAB2054B54
S315200000201A70054B044A126801210A431A60C04619
S31520000030BD4680BD70010020143C014080B500AF54
S31520000040054B00221A70054B044A126802210A4306
S315200000501A60C046BD4680BD70010020143C014098
S3152000006080B500AF074B1B78DBB2DB43DAB2054B1A
S315200000701A70054B044A126804210A431A60C046C6
S31520000080BD4680BD70010020143C014080B500AF04
S31520000090224B224A1268120C12041A601F4B1F4A66
S315200000A012681F490A431A601E4B00221A601E4B13
S315200000B01D4A1268120B12031A601B4B1A4A126849
S315200000C01A490A431A601A4B194A126807210A4329
S315200000D01A60184B174A126807210A431A60164BF2
S315200000E0164A1A60164B174A1A60174B174A1A6097
S315200000F0174B174A1268802149000A431A60144B8D
S31520000100134A126880210A431A60114B104A12685A
S3152000011040210A431A60C046BD4680BD000C0240FD
S3152000012055550000001002400838014044040000E4
S31520000130003C01400C3C014060C0012061000020D1
S315200001405CC001203D00002058C001201100002085
S3152000015000E100E080B500AFFFF798FF024A034BAD
S315200001601B78DBB21370F9E7140C024070010020F3
S309200001700000000065
S70520000000DA
