S01B00002E2F44656275672F666C6970666C6F705F6972712E7331395F
S315200000000248854600F064F8FEE7C04600C001209D
S3152000001080B500AF064B1B685A1C054B1A60054B72
S31520000020044A126808210A431A60C046BD4680BDAC
S31520000030EC000020143C014080B500AF1A4B1A4A50
S315200000401268120C12041A60174B174A12681749C5
S315200000500A431A60164B00221A60164B154A12687C
S3152000006015490A401A60134B124A12688021C901A9
S315200000700A431A60114B114A126808210A431A6072
S315200000800F4B0F4A126808210A431A600D4B0E4A7D
S315200000901A600E4B0D4A1268802189000A431A60A5
S315200000A0C046BD4680BDC046000C024055550000E6
S315200000B00010024008380140FF0FFFFF003C0140BE
S315200000C00C3C014064C001201100002000E100E04A
S315200000D080B500AFFFF7B0FF024A034B1B68DBB2C7
S315200000E01370F9E7140C0240EC0000200000000019
S70520000000DA
