S01B00002E2F44656275672F6173636969646973706C61792E73313967
S315200000000248854600F0CAF9FEE7C04600C0012036
S3152000001080B500AF114B114A12681A600F4B0F4A78
S3152000002012680F490A431A600E4B0E4A128892B282
S315200000301A800C4A0B4B1B889BB20B490B439BB275
S3152000004013800A4B094A12681A60084B074A12683D
S3152000005007490A431A60C046BD4680BD00100240CB
S315200000605555555504100240777700000C10024074
S31520000070AAAAAAAA80B500AF0C4B00221A600C4B84
S3152000008000221A600B4B31221A60084B01221A609B
S31520000090C046064B1A6880235B021340F9D0034BF7
S315200000A000221A60C046BD4680BDC04610E000E072
S315200000B018E000E014E000E080B584B000AF78607E
S315200000C00023FB6002E0FB680133FB60FA687B6873
S315200000D09A42F8D3C046BD4604B080BD80B582B0F2
S315200000E000AF78607B68FA22920053431800FFF72E
S315200000F0E3FFC046BD4602B080BD80B582B000AFEA
S315200001000200FB1D1A70FB1D1B78072B3AD89A009C
S315200001101E4BD3181B689F461D4A1D4B1B78DBB20E
S3152000012001210B43DBB213702CE0194A184B1B78C4
S31520000130DBB210210B43DBB2137023E0144B144ABD
S315200001401278D2B21A701DE0114B114A1278D2B22F
S315200001501A7017E00E4B0E4A1278D2B21A7011E0BE
S315200001600B4B0B4A1278D2B21A700BE0084B084A96
S315200001701278D2B21A7005E0054B054A1278D2B22F
S315200001801A70C046C046BD4602B080BDCC030020D2
S315200001901410024080B582B000AF0200FB1D1A7019
S315200001A0FB1D1B78072B4CD89A00284BD3181B68AD
S315200001B09F46274A264B1B78DBB210210B40DBB229
S315200001C013703EE0224A224B1B78DBB201210B4002
S315200001D0DBB2137035E01E4A1D4B1B78DBB21121B2
S315200001E00B40DBB213702CE0194A194B1B78DBB29B
S315200001F011210B40DBB2137023E0154A144B1B78F8
S31520000200DBB211210B40DBB213701AE0104A104BFF
S315200002101B78DBB211210B40DBB2137011E00C4AC4
S315200002200B4B1B78DBB211210B40DBB2137008E0BD
S31520000230074A074B1B78DBB211210B40DBB2137048
S31520000240C046C046BD4602B080BDC046EC03002075
S315200002501410024080B582B000AF0200FB1D1A7058
S315200002600620FFF74AFF064AFB1D1B781370FFF78F
S3152000027001FF0620FFF78EFFC046BD4602B080BDB7
S315200002801510024080B582B000AF0620FFF735FF7B
S31520000290FFF7F0FEFFF7EEFE064AFB1D12781A70F6
S315200002A00620FFF777FFFB1D1B781800BD4602B01E
S315200002B080BDC0461110024080B582B000AF02005A
S315200002C0FB1D1A700020FFF718FF0120FFF715FF0E
S315200002D0FB1D1B781800FFF7BDFFC046BD4602B0C8
S315200002E080BD80B582B000AF0200FB1D1A700020D1
S315200002F0FFF703FF0120FFF74DFFFB1D1B781800BA
S31520000300FFF7A8FFC046BD4602B080BD90B583B0BA
S3152000031000AF0E4B0D4A12681204120C1A60002010
S31520000320FFF738FF0120FFF7E8FEFC1DFFF7AAFFC5
S3152000033003002370054B054A126805490A431A60D3
S31520000340FB1D1B781800BD4603B090BD001002406F
S31520000350FFFF555590B583B000AF0E4B0D4A12687E
S315200003601204120C1A600020FFF7C7FE0120FFF7C7
S31520000370C4FEFC1DFFF786FF03002370054B054ACC
S31520000380126805490A431A60FB1D1B781800BD46F2
S3152000039003B090BD00100240FFFF555580B500AF59
S315200003A0FFF736FE084B00221A70FA235B0018006E
S315200003B0FFF794FE044BFF221A70FA235B00180005
S315200003C0FFF78CFEEEE7C04614100240180100200D
S315200003D02A0100203C010020480100205401002071
S315200003E0600100206C01002078010020B20100206D
S315200003F0C4010020D6010020E8010020FA010020D7
S311200004000C0200201E020020300200200A
S70520000000DA
