S01B00002E2F44656275672F6173636969646973706C61792E73313967
S315200000000248854600F05CFAFEE7C04600C00120A3
S3152000001080B500AF0A4B0B4A1A600B4B0B4A1A806D
S315200000200B4B0C4A1A600C4B00221A700B4B002209
S315200000301A700B4B00221A70C046BD4680BDC046C2
S3152000004000100240555555550410024077770000A0
S315200000500C100240AAAAAAAA1510024014100240A7
S315200000601110024080B500AF0C4B00221A600C4BD9
S3152000007031221A600B4B00221A60084B05221A60A7
S31520000080C046064B1A6880235B021340F9D0034B07
S3152000009000221A60C046BD4680BDC04610E000E082
S315200000A014E000E018E000E080B582B000AF786090
S315200000B007E0FFF7D7FFFFF7D5FFFFF7D3FFFFF7DF
S315200000C0D1FF7B685A1E7A60002BF2D1C046BD460E
S315200000D002B080BD80B582B000AF78607B68180022
S315200000E0FFF7E2FFC046BD4602B080BD80B582B0B4
S315200000F000AF78607B68072B4ED87B689A00284B28
S31520000100D3181B689F46274A264B1B78DBB2012152
S315200001100B43DBB213703FE0224A224B1B78DBB243
S3152000012002210B43DBB2137036E01E4A1D4B1B78AF
S31520000130DBB204210B43DBB213702DE0194A194BB5
S315200001401B78DBB208210B43DBB2137024E0154A7F
S31520000150144B1B78DBB210210B43DBB213701BE070
S31520000160104A104B1B78DBB220210B43DBB21370F5
S3152000017012E00C4A0B4B1B78DBB240210B43DBB25F
S31520000180137009E00749074B1B78DBB280225242E5
S315200001901343DBB20B70C046C046BD4602B080BDDD
S315200001A0480500201410024080B582B000AF786068
S315200001B07B68072B4DD87B689A00284BD3181B6881
S315200001C09F46274A264B1B78DBB201218B43DBB2A5
S315200001D013703EE0224A224B1B78DBB202218B436E
S315200001E0DBB2137035E01E4A1D4B1B78DBB20421AF
S315200001F08B43DBB213702CE0194A194B1B78DBB208
S3152000020008218B43DBB2137023E0154A144B1B786D
S31520000210DBB210218B43DBB213701AE0104A104B6D
S315200002201B78DBB220218B43DBB2137011E00C4A22
S315200002300B4B1B78DBB240218B43DBB2137008E0FB
S31520000240074A074B1B78DBB27F210B40DBB21370CA
S31520000250C046C046BD4602B080BDC04668050020E7
S315200002601410024080B582B000AF0200FB1D1A7048
S315200002700620FFF73BFF064AFB1D1B781370FFF78E
S31520000280F1FE0620FFF790FFC046BD4602B080BDB6
S315200002901510024080B582B000AF0620FFF726FF7A
S315200002A0FFF7E0FEFFF7DEFE064AFB1D12781A7006
S315200002B00620FFF779FFFB1D1B781800BD4602B00C
S315200002C080BDC0461110024080B582B000AF02004A
S315200002D0FB1D1A700020FFF767FF0120FFF764FF60
S315200002E0FB1D1B781800FFF7BDFFC046BD4602B0B8
S315200002F080BD80B582B000AF0200FB1D1A700020C1
S31520000300FFF7F4FE0120FFF74FFFFB1D1B781800B7
S31520000310FFF7A8FFC046BD4602B080BD90B583B0AA
S3152000032000AF114B104A12681204120C1A600020FA
S31520000330FFF73AFF0120FFF7D9FEFC1DFFF7AAFFC2
S3152000034003002370084B084A12681204120C1A6024
S31520000350054B054A126805490A431A60FB1D1B789E
S315200003601800BD4603B090BD001002400000555550
S3152000037090B583B000AF114B104A12681204120CCC
S315200003801A600020FFF7B2FE0120FFF7AFFEFC1D2A
S31520000390FFF780FF03002370084B084A12681204F7
S315200003A0120C1A60054B054A126805490A431A6061
S315200003B0FB1D1B781800BD4603B090BD00100240FF
S315200003C00000555580B582B000AF02003960FB1D94
S315200003D01A70C046FFF7A2FF03001A0080231340BD
S315200003E0802BF7D00820FFF75FFEFB1D1B78180037
S315200003F0FFF76AFF3B681800FFF756FEC046BD466A
S3152000040002B080BD80B500AF28213820FFF7DAFF83
S3152000041028210E20FFF7D6FF054B19000120FFF7F4
S31520000420D1FF28210620FFF7CDFFC046BD4680BD5F
S31520000430FA05000080B582B000AF0200FB1D1A70DD
S31520000440C046FFF76BFF03001A0080231340802B62
S31520000450F7D00820FFF728FEFB1D1B781800FFF7B2
S3152000046048FF2D20FFF720FEC046BD4602B080BDC6
S3152000047080B584B000AF0200FB1D1A70BB1D0A1C9C
S315200004801A700F23FB18FA1D1278013A1A70BB1D39
S315200004901B78022B06D10F23FB180F22BA181278CD
S315200004A040321A700F23FB181B78802252421343C6
S315200004B0DBB21800FFF708FFC046BD4604B080BD7A
S315200004C090B58DB000AF786039601C23FB181C4AAC
S315200004D013CA13C312881A800C23FB18194A13CA8D
S315200004E013C31188198092789A70FFF791FDFFF750
S315200004F089FF01210120FFF7BBFF1C23FB18FB62AC
S3152000050006E0FB6A5A1CFA621B781800FFF792FF76
S31520000510FB6A1B78002BF4D10C23FB18FB6206E048
S31520000520FB6A5A1CFA621B781800FFF783FFFB6AE6
S315200005301B78002BF4D1C046BD460DB090BDC046F9
S3152000054088050020980500200601002018010020BB
S315200005502A0100203C0100204E01002060010020DD
S315200005607201002084010020C2010020D401002055
S31520000570E6010020F80100200A0200201C020020CB
S315200005802E02002040020020416C66616E756D656A
S315200005907269736B20000000446973706C61792066
S30D200005A02D2074657374000020
S70520000000DA
