S01800002E2F44656275672F7265616C5F706F6E672E733139B2
S315200000000248854600F042F8FEE7C04600C00120BF
S3152000001080B500AF174B184A1A60184B174A12685A
S315200000201204120C1A60154B144A1268AA21C9052B
S315200000300A431A60124A124B1B889BB2FF210B40BF
S315200000409BB213800E490E4B1B889BB2E022D20135
S3152000005013439BB20B800B4B0A4A12681204120CF4
S315200000601A60084B074A126807490A431A60C046B5
S31520000070BD4680BD0010024055555555000C024026
S31520000080040C02400C0C02400000AAAA80B586B0DF
S3152000009000AF394B3B61394BFB60394BBB60FFF7F7
S315200000A0B7FF00F05BFA3B691B6A38691022102102
S315200000B0984700F00BFD03007B60FB681B6AF8681D
S315200000C0002200219847BB681B6AB86800220021DD
S315200000D098471723FB1800221A7035E01723FB18C0
S315200000E01B787A68D3181B78042B0FD002DC012BDF
S315200000F005D022E00C2B11D00D2B16D01DE0FB686D
S315200001001B6AF8680A220021984716E0FB681B6ADA
S315200001100A225242F868002198470EE0BB681B6A03
S31520000120B8680A220021984707E0BB681B6A0A22A2
S315200001305242B86800219847C0461723FB181A7800
S315200001401723FB1801321A701723FB181B78032B71
S31520000150C4D93B69DB693A6910009847FB68DB69BB
S31520000160FA6810009847BB68DB69BA6810009847A0
S31520000170322000F013FC9CE7380C0020300D0020C4
S31520000180540D002080B584B000AF78607B681800DD
S3152000019000F08DFB7B68DA687B685B68D2187B6829
S315200001A0DA607B681A697B689B68D2187B681A615B
S315200001B07B681B69002B03DB7B681B693F2B04DDF7
S315200001C07B689B685A427B689A60234BFB60234B73
S315200001D0BB607B68DA68FB68D968FB681B685B686C
S315200001E0CB189A4214DC7B681A69FB681B699A4211
S315200001F00EDB7B681A69FB681969FB681B689B68BC
S31520000200CB189A4204DC7B685B685A427B685A604A
S315200002107B68DA68BB68DB689A4214DB7B681A69FC
S31520000220BB681B699A420EDB7B681A69BB68196931
S31520000230BB681B689B68CB189A4204DC7B685B68AA
S315200002405A427B685A607B685B697A6810009847D7
S31520000250C046BD4604B080BD300D0020540D0020A0
S3152000026080B582B000AF0200FB1D1A700949094B08
S315200002701B78DBB25AB2FB1D1B785BB2042083438A
S315200002805BB213435BB2DBB20B70C046BD4602B015
S3152000029080BDC0461410024080B582B000AF020077
S315200002A0FB1D1A700849084B1B78DBB25BB2FA1D9E
S315200002B0127852B2D24352B213405BB2DBB20B7009
S315200002C0C046BD4602B080BD1410024080B582B043
S315200002D000AF0200FB1D1A70FB1D1B78002B06D1F8
S315200002E00820FFF7D9FF1020FFF7D6FF1FE0FB1DE0
S315200002F01B78182B06D10820FFF7B2FF1020FFF736
S31520000300AFFF14E0FB1D1B78082B06D10820FFF752
S31520000310A7FF1020FFF7C0FF09E0FB1D1B78102B5D
S3152000032005D10820FFF7B8FF1020FFF799FFC04638
S31520000330BD4602B080BD80B500AF4020FFF7ACFFC0
S31520000340124B134A1A600120FFF7A6FF0220FFF77F
S3152000035087FF00F02FFB4020FFF782FF00F02AFBEB
S315200003604020FFF799FF00F025FB0A4B1B78DBB2F4
S315200003705BB2002B00DAEEE7C0464020FFF770FFA5
S31520000380024B054A1A60C046BD4680BD0010024099
S3152000039055550000111002405555555580B584B06D
S315200003A000AF0200FB1D1A704020FFF775FF1B4BA4
S315200003B01B4A1A600320FFF753FFFB1D1B7818000A
S315200003C0FFF784FF00F0F6FA4020FFF749FF00F020
S315200003D0F1FA144A0F23FB1812781A704020FFF7FF
S315200003E05BFF0E4B104A1A60FB1D1B78082B04D1AD
S315200003F00820FFF76BFFFFF79EFFFB1D1B78102BD6
S3152000040004D11020FFF762FFFFF795FF0F23FB189B
S315200004101B781800BD4604B080BDC04600100240BF
S3152000042055550000111002405555555580B582B0DE
S3152000043000AF0200FB1D1A70BB1D0A1C1A701A4A57
S31520000440FB1D1B781370BB1D1B781800FFF73EFFA2
S3152000045000F0B0FA4020FFF703FF00F0ABFA40208F
S31520000460FFF71AFFBB1D1B780822134004D0082073
S31520000470FFF72CFFFFF75FFFBB1D1B7810221340F1
S3152000048004D01020FFF722FFFFF755FF064B00226E
S315200004901A704020FFF7E4FE0020FFF717FFC04642
S315200004A0BD4602B080BDC0461510024080B582B060
S315200004B000AF0200FB1D1A70BB1D0A1C1A704020DB
S315200004C0FFF7EAFEBB1D1B781800FFF7FFFE03208F
S315200004D0FFF7E2FEBB1D1A78FB1D1B7811001800E2
S315200004E0FFF7A4FFC046BD4602B080BD80B582B0EE
S315200004F000AF0200FB1D1A70BB1D0A1C1A7040209B
S31520000500FFF7CAFEBB1D1B781800FFF7DFFE012090
S31520000510FFF7A6FE0220FFF7BFFEBB1D1A78FB1DC4
S315200005201B7811001800FFF781FFC046BD4602B0B8
S3152000053080BD80B582B000AF0200FB1D1A70FB1D86
S315200005401B781800FFF72AFFFB1D1B781800FFF702
S3152000055025FF03001800BD4602B080BD80B500AF60
S315200005604020FFF77DFE0A2000F002FA7820FFF7F0
S3152000057093FE1E2000F012FA2020FFF771FE1821AC
S315200005803E20FFF793FF18213F20FFF78FFF18210A
S31520000590C020FFF78BFF18214020FFF787FF182187
S315200005A0B820FFF783FF0020FFF790FEC046BD4628
S315200005B080BD80B582B000AF00237B601EE07B68E3
S315200005C05BB24822524213435BB2DBB218211800B9
S315200005D0FFF76CFF18214020FFF768FF00233B60E0
S315200005E006E018210020FFF781FF3B6801333B60BE
S315200005F03B683E2BF5DD7B6801337B607B68072BF0
S31520000600DDDDC046BD4602B080BD90B585B000AFE9
S31520000610040008001100FB1D221C1A70BB1D021CC1
S315200006201A707B1D0A1C1A70FB1D1B785BB2002BEF
S3152000063000DA07E1BB1D1B783F2B00D902E1BB1D69
S315200006401B78013B002B00DA0733DB101A000D2341
S31520000650FB181A70BB1D1B78013B1A000723134099
S3152000066003D10F23FB1801221A70BB1D1B78013BF7
S31520000670764A134004D5013B0822524213430133E4
S31520000680012B03D10F23FB1802221A70BB1D1B78E6
S31520000690013B6E4A134004D5013B082252421343C4
S315200006A00133022B03D10F23FB1804221A70BB1D22
S315200006B01B78013B654A134004D5013B0822524270
S315200006C013430133032B03D10F23FB1808221A707F
S315200006D0BB1D1B78013B5D4A134004D5013B082214
S315200006E0524213430133042B03D10F23FB1810224C
S315200006F01A70BB1D1B78013B544A134004D5013B9D
S315200007000822524213430133052B03D10F23FB1832
S3152000071020221A70BB1D1B78013B4C4A134004D57E
S31520000720013B0822524213430133062B03D10F23E8
S31520000730FB1840221A70BB1D1B78013B434A13400D
S3152000074004D5013B0822524213430133072B03D120
S315200007500F23FB1880221A707B1D1B78002B06D1D5
S315200007600F23FB180F22BA181278D2431A70FB1DDA
S315200007701B78402B09D90E23FB1810221A70FB1D5B
S31520000780FA1D1278413A1A7008E00E23FB18082247
S315200007901A70FB1DFA1D1278013A1A70FB1D1B7880
S315200007A040221343DAB20E23FB181B7819001000DF
S315200007B0FFF77CFE0D23FB181B7848225242134379
S315200007C0DAB20E23FB181B7819001000FFF76EFE15
S315200007D00C23FC180E23FB181B781800FFF7A9FE24
S315200007E003002370FB1D1B7840221343DAB20E232D
S315200007F0FB181B7819001000FFF758FE7B1D1B788D
S31520000800012B0AD10F23FB180F22B9180C22BA1874
S31520000810097812780A431A7009E00F23FB180F2271
S31520000820BA180C217918127809780A401A700E2302
S31520000830FB181A780F23FB181B7811001800FFF7F6
S3152000084055FE00E0C046BD4605B090BD07000080BD
S3152000085080B584B000AF78600023FB6020E07B6821
S315200008601A68FB6804335B00D31804331A787B6854
S31520000870DB68DBB2D318D8B27B681A68FB6804330E
S315200008805B00D31805331A787B681B69DBB2D31853
S31520000890DBB201221900FFF7B8FEFB680133FB60CB
S315200008A0FB68632BDBDDC046BD4604B080BD80B54A
S315200008B084B000AF78600023FB6020E07B681A6874
S315200008C0FB6804335B00D31804331A787B68DB6833
S315200008D0DBB2D318D8B27B681A68FB6804335B0096
S315200008E0D31805331A787B681B69DBB2D318DBB2C1
S315200008F000221900FFF789FEFB680133FB60FB68C5
S31520000900632BDBDDC046BD4604B080BD80B584B018
S3152000091000AFF860B9607A60FB68BA685A60FB6815
S315200009207A689A60C046BD4604B080BD80B500AFE7
S315200009300C4B00221A600C4B31221A600B4B002202
S315200009401A60084B05221A60C046064B1A68802397
S315200009505B021340F9D0034B00221A60C046BD4605
S3152000096080BDC04610E000E014E000E018E000E0A2
S3152000097080B582B000AF786007E0FFF7D7FFFFF7BA
S31520000980D5FFFFF7D3FFFFF7D1FF7B685A1E7A60AA
S31520000990002BF2D1C046BD4602B080BD80B582B0E4
S315200009A000AF78607B681800FFF7E2FFC046BD46BF
S315200009B002B080BD80B500AFFFF7B8FFFFF7B6FFE6
S315200009C0C046BD4680BDC04680B582B000AF7860C7
S315200009D07B681800FFF76BFF7B681A697B689B684A
S315200009E0D2187B681A617B681B69002B03DA7B6847
S315200009F000221A610EE07B681A697B681B689B6877
S31520000A00D3187F2B06DD7B681B689B687F22D21A52
S31520000A107B681A617B685B697A6810009847C046D4
S31520000A20BD4602B080BD000080B582B000AF020096
S31520000A30FB1D1A70FB1D1B78042B18D89A000E4B31
S31520000A40D3181B689F460D4B00221A700FE00B4BE4
S31520000A5010221A700BE0094B20221A7007E0074B70
S31520000A6040221A7003E0054B80221A70C046C04609
S31520000A70BD4602B080BDC0467C0D0020150C02404C
S31520000A8080B582B000AF104AFB1D12781A70FB1D8C
S31520000A901B78012B01D1012312E0FB1D1B78022BB1
S31520000AA001D102230CE0FB1D1B78042B01D103236B
S31520000AB006E0FB1D1B78082B01D1042300E0002350
S31520000AC01800BD4602B080BD110C024090B587B01B
S31520000AD000AF3B1D214A13CA13C312681A6017239D
S31520000AE0FB1801221A702CE01723FB181B7818001C
S31520000AF0FFF79AFF1623FC18FFF7C2FF03002370A7
S31520000B001623FB181B78002B14D00020FFF78CFF30
S31520000B101723FB181B78043B1722BA181278013AC0
S31520000B2091001622BA181278013A8A18391D895C62
S31520000B300B4AD1541723FB181A781723FB180132B6
S31520000B401A701723FB181B78042BCDD90020FFF72A
S31520000B506BFF034B1800BD4607B090BD900D0020DB
S31520000B60780D00200C0000000400000004000000A6
S31520000B70000100020100010101020103020002013D
S31520000B80020202030301030200000000000000002D
S31520000B90000000000000000000000000000000002F
S31520000BA0000000000000000000000000000000001F
S31520000BB0000000000000000000000000000000000F
S31520000BC000000000000000000000000000000000FF
S31520000BD000000000000000000000000000000000EF
S31520000BE000000000000000000000000000000000DF
S31520000BF000000000000000000000000000000000CF
S31520000C0000000000000000000000000000000000BE
S31520000C1000000000000000000000000000000000AE
S31520000C20000000000000000000000000000000009E
S31520000C300000000000000000640B002000000000FF
S31520000C400000000001000000010000005108002003
S31520000C50AF080020850100200D0900206400000057
S31520000C60040000001900000000000100020003003B
S31520000C700001010102010301000201020202030236
S31520000C800003010302030303000401040204030416
S31520000C9000050105020503050006010602060306F6
S31520000CA000070107020703070008010802080308D6
S31520000CB00009010902090309000A010A020A030AB6
S31520000CC0000B010B020B030B000C010C020C030C96
S31520000CD0000D010D020D030D000E010E020E030E76
S31520000CE0000F010F020F030F001001100210031056
S31520000CF00011011102110311001201120212031236
S31520000D000013011302130313001401140214031415
S31520000D1000150115021503150016011602160316F5
S31520000D2000170117021703170018011802180318D5
S31520000D305C0C002000000000000000000100000004
S31520000D402000000051080020AF080020C90900201B
S31520000D500D0900205C0C00200000000000000000AF
S31520000D607C0000002000000051080020AF08002071
S31520000D70C90900200D090020FFFFFFFF460A0020B9
S31520000D804E0A0020560A00205E0A0020660A00202D
S31520000D900102030A0405060B0708090C0E000F0DB5
S70520000000DA
