S01800002E2F44656275672F7265616C5F706F6E672E733139B2
S315200000000248854600F028F8FEE7C04600C00120D9
S3152000001080B500AF0B4B0C4A1A600C4BAA22D205B6
S315200000201A600B4B0A4A128892B21A80084B084A69
S31520000030128892B21A80074BAA2212041A60C0466E
S31520000040BD4680BD0010024055555555000C024056
S31520000050040C02400C0C024080B586B000AF3A4B2F
S315200000603B613A4BFB603A4BBB60FFF7D1FF00F098
S31520000070A3FA00F0CFFA3B691B6A386904220421EF
S31520000080984700F0FFFC03007B60FB681B6AF8685A
S31520000090002200219847BB681B6AB868002200210D
S315200000A098471723FB1800221A7035E01723FB18F0
S315200000B01B787A68D3181B78042B10D002DC012B0E
S315200000C005D022E00C2B11D00D2B17D01DE0FB689C
S315200000D01B6A05225242F8680021984715E0FB6802
S315200000E01B6AF8680522002198470EE0BB681B6A48
S315200000F005225242B8680021984706E0BB681B6A71
S31520000100B868052200219847C0461723FB181A789D
S315200001101723FB1801321A701723FB181B78032BA1
S31520000120C4D93B69DB693A6910009847FB68DB69EB
S31520000130FA6810009847BB68DB69BA6810009847D0
S315200001401E2000F003FC9CE7000C0020F80C002089
S315200001501C0D002080B584B000AF78607B68180045
S3152000016000F07DFB7B68DA687B685B68D2187B6869
S31520000170DA607B681A697B689B68D2187B681A618B
S315200001807B681B69002B08DA7B6800221A617B6872
S315200001909B685A427B689A600BE07B681B693F2B01
S315200001A007DD7B683F221A617B689B685A427B6821
S315200001B09A603D4BFB603D4BBB607B68DA68FB6811
S315200001C0D968FB681B685B68CB189A4230DC7B6871
S315200001D01A69FB681B699A4218DB7B681A69FB68F7
S315200001E01969FB681B689B68CB189A420EDCFB6872
S315200001F0DA68FB681B685B68D3185A1C7B68DA6070
S315200002007B685B685A427B685A6011E0FA235B0080
S31520000210180000F09BFB7B683F22DA607B685B68F6
S315200002205A427B685A607B689B685A427B689A6010
S315200002307B68DA68BB68DB689A422CDB7B681A69C4
S31520000240BB681B699A4214DB7B681A69BB6819690B
S31520000250BB681B689B68CB189A420ADCBB68DB68C4
S315200002605A1E7B68DA607B685B685A427B685A60F4
S3152000027011E0FA235B00180000F068FB7B683F2240
S31520000280DA607B685B685A427B685A607B689B6849
S315200002905A427B689A607B685B697A681000984747
S315200002A0C046BD4604B080BDF80C00201C0D0020C1
S315200002B080B582B000AF0200FB1D1A700949094BB8
S315200002C01B78DBB25AB2FB1D1B785BB2042083433A
S315200002D05BB213435BB2DBB20B70C046BD4602B0C5
S315200002E080BDC0461410024080B582B000AF020027
S315200002F0FB1D1A700849084B1B78DBB25BB2FA1D4E
S31520000300127852B2D24352B213405BB2DBB20B70B8
S31520000310C046BD4602B080BD1410024080B582B0F2
S3152000032000AF0200FB1D1A70FB1D1B78002B06D1A7
S315200003300820FFF7D9FF1020FFF7D6FF1FE0FB1D8F
S315200003401B78182B06D10820FFF7B2FF1020FFF7E5
S31520000350AFFF14E0FB1D1B78082B06D10820FFF702
S31520000360A7FF1020FFF7C0FF09E0FB1D1B78102B0D
S3152000037005D10820FFF7B8FF1020FFF799FFC046E8
S31520000380BD4602B080BD80B582B000AF4020FFF7E9
S31520000390ABFF154B154A1A600120FFF7A5FF022077
S315200003A0FFF786FF00F0E1FA4020FFF781FF00F01B
S315200003B0DCFA0F4AFB1D12781A704020FFF794FFD3
S315200003C000F0D3FAFB1D1B785BB2002B00DAEBE7BB
S315200003D0C0464020FFF76CFF034B064A1A60C04612
S315200003E0BD4602B080BDC0460010024055550000F3
S315200003F0111002405555555580B584B000AF020006
S31520000400FB1D1A704020FFF76FFF1B4B1B4A1A601B
S315200004100320FFF74DFFFB1D1B781800FFF77EFF1B
S3152000042000F0A3FA4020FFF743FF00F09EFA144A9B
S315200004300F23FB1812781A704020FFF755FF0E4B3A
S31520000440104A1A60FB1D1B78082B04D10820FFF7E1
S3152000045065FFFFF798FFFB1D1B78102B04D110209A
S31520000460FFF75CFFFFF78FFF0F23FB181B781800A1
S31520000470BD4604B080BDC046001002405555000060
S31520000480111002405555555580B582B000AF020077
S31520000490FB1D1A70BB1D0A1C1A701A4AFB1D1B78FD
S315200004A01370BB1D1B781800FFF738FF00F05DFAAC
S315200004B04020FFF7FDFE00F058FA4020FFF714FF1A
S315200004C0BB1D1B780822134004D00820FFF726FF07
S315200004D0FFF759FFBB1D1B781022134004D01020B4
S315200004E0FFF71CFFFFF74FFF064B00221A70402034
S315200004F0FFF7DEFE0020FFF711FFC046BD4602B023
S3152000050080BDC0461510024080B582B000AF020003
S31520000510FB1D1A70BB1D0A1C1A704020FFF7E4FE53
S31520000520BB1D1B781800FFF7F9FE0320FFF7DCFE42
S31520000530BB1D1A78FB1D1B7811001800FFF7A4FFBE
S31520000540C046BD4602B080BD80B582B000AF020075
S31520000550FB1D1A70BB1D0A1C1A704020FFF7C4FE33
S31520000560BB1D1B781800FFF7D9FE0120FFF7A0FE60
S315200005700220FFF7B9FEBB1D1A78FB1D1B78110060
S315200005801800FFF781FFC046BD4602B080BD80B58A
S3152000059082B000AF0200FB1D1A70FB1D1B781800ED
S315200005A0FFF72AFFFB1D1B781800FFF725FF030026
S315200005B01800BD4602B080BD80B500AF4020FFF7D1
S315200005C077FE0420FFF774FE0A2000F0A9F97820B0
S315200005D0FFF78AFE1E2000F0B9F92020FFF768FEFB
S315200005E018213E20FFF790FF18213F20FFF78CFFB0
S315200005F01821C020FFF788FF18214020FFF784FF2D
S315200006001821B820FFF780FF0020FFF787FEC0469D
S31520000610BD4680BD80B582B000AF00237B601EE062
S315200006207B685BB24822524213435BB2DBB218218D
S315200006301800FFF769FF18214020FFF765FF002308
S315200006403B6006E018210020FFF77EFF3B68013360
S315200006503B603B683F2BF5DD7B6801337B607B6825
S31520000660072BDDDDC046BD4602B080BD90B585B006
S3152000067000AF040008001100FB1D221C1A70BB1DD0
S31520000680021C1A707B1D0A1C1A70FB1D1B785BB29C
S31520000690002B00DAAEE0BB1D1B783F2B00D9A9E06A
S315200006A00D23FB18BA1D1278D2081A70BB1D1B78B1
S315200006B007221340072B2CD89A00504BD3181B68BF
S315200006C09F460F23FB1801221A7022E00F23FB18E6
S315200006D002221A701DE00F23FB1804221A7018E05C
S315200006E00F23FB1808221A7013E00F23FB18102281
S315200006F01A700EE00F23FB1820221A7009E00F2330
S31520000700FB1840221A7004E00F23FB1880221A706F
S31520000710C0467B1D1B78002B06D10F23FB180F220A
S31520000720BA181278D2431A70FB1D1B783F2B09D9B1
S315200007300E23FB1810221A70FB1DFA1D1278403A60
S315200007401A7003E00E23FB1808221A70FB1D1B7873
S3152000075040221343DAB20E23FB181B78190010002F
S31520000760FFF7D2FE0D23FB181B7848225242134373
S31520000770DAB20E23FB181B7819001000FFF7C4FE0F
S315200007800C23FC180E23FB181B781800FFF7FFFE1E
S3152000079003002370FB1D1B7840221343DAB20E237D
S315200007A0FB181B7819001000FFF7AEFE7B1D1B7887
S315200007B0002B0AD00F23FB180F22B9180C22BA18C7
S315200007C0097812780A431A7009E00F23FB180F22C2
S315200007D0BA180C217918127809780A401A700E2353
S315200007E0FB181A780F23FB181B7811001800FFF747
S315200007F0ABFE00E0C046BD4605B090BD440D0020CE
S3152000080080B584B000AF78600023FB6020E07B6871
S315200008101A68FB6804335B00D31804331A787B68A4
S31520000820DB68DBB2D318D8B27B681A68FB6804335E
S315200008305B00D31805331A787B681B69DBB2D318A3
S31520000840DBB201221900FFF711FFFB680133FB60C1
S31520000850FB68632BDBDDC046BD4604B080BD80B59A
S3152000086084B000AF78600023FB6020E07B681A68C4
S31520000870FB6804335B00D31804331A787B68DB6883
S31520000880DBB2D318D8B27B681A68FB6804335B00E6
S31520000890D31805331A787B681B69DBB2D318DBB211
S315200008A000221900FFF7E2FEFB680133FB60FB68BC
S315200008B0632BDBDDC046BD4604B080BD80B584B069
S315200008C000AFF860B9607A60FB68BA685A60FB6866
S315200008D07A689A60C046BD4604B080BD80B500AF38
S315200008E00C4B00221A600C4B31221A600B4B002253
S315200008F01A60084B05221A60C046064B1A688023E8
S315200009005B021340F9D0034B00221A60C046BD4655
S3152000091080BDC04610E000E014E000E018E000E0F2
S3152000092080B582B000AF786007E0FFF7D7FFFFF70A
S31520000930D5FFFFF7D3FFFFF7D1FF7B685A1E7A60FA
S31520000940002BF2D1C046BD4602B080BD80B582B034
S3152000095000AF78607B68FA22920053431800FFF7B5
S31520000960DFFFC046BD4602B080BD80B500AFFFF7B1
S31520000970B5FFFFF7B3FFC046BD4680BD80B582B048
S3152000098000AF78607B681800FFF769FF7B681A69FB
S315200009907B689B68D2187B681A617B681B69002B71
S315200009A003DA7B6800221A610EE07B681A697B688D
S315200009B01B689B68D3183F2B06DD7B681B689B68EA
S315200009C03F22D21A7B681A617B685B697A681000BD
S315200009D09847C046BD4602B080BD000080B582B0B3
S315200009E000AF78607B68042B19D87B689A000E4B81
S315200009F0D3181B689F460D4B00221A700FE00B4B35
S31520000A0010221A700BE0094B20221A7007E0074BC0
S31520000A1040221A7003E0054B80221A70C046C04659
S31520000A20BD4602B080BDC046640D0020150C0240B4
S31520000A3080B582B000AF124AFB1D12781A70FB1DDA
S31520000A401B780122134001D0012315E0FB1D1B78E2
S31520000A500222134001D002230EE0FB1D1B78042244
S31520000A60134001D0032307E0FB1D1B780822134007
S31520000A7001D0042300E000231800BD4602B080BD4B
S31520000A80110C024090B587B000AF3B1D254A13CA12
S31520000A9013C312681A601723FB1801221A7033E059
S31520000AA01723FB181B781800FFF798FFFFF716FF90
S31520000AB01623FC18FFF7BCFF030023701623FB1830
S31520000AC01B78002B12D01723FB181B78013B17220B
S31520000AD0BA181278013A91001622BA181278013AF9
S31520000AE08A18391D895C104AD15406E01723FB1851
S31520000AF01B78013B0C4AFF21D1541723FB181A7887
S31520000B001723FB1801321A701723FB181B78042BA6
S31520000B10C6D90020FFF762FF034B1800BD4607B079
S31520000B2090BDC046780D0020400D00200C0000002E
S31520000B300400000004000000000100020100010181
S31520000B400102010302000201020202030301030261
S31520000B50000000000000000000000000000000006F
S31520000B60000000000000000000000000000000005F
S31520000B70000000000000000000000000000000004F
S31520000B80000000000000000000000000000000003F
S31520000B90000000000000000000000000000000002F
S31520000BA0000000000000000000000000000000001F
S31520000BB0000000000000000000000000000000000F
S31520000BC000000000000000000000000000000000FF
S31520000BD000000000000000000000000000000000EF
S31520000BE000000000000000000000000000000000DF
S31520000BF000000000000000000000000000000000CF
S31520000C002C0B002000000000000000003F00000028
S31520000C1020000000010800205F0800205501002068
S31520000C20BD08002064000000040000001900000038
S31520000C30000001000200030000010101020103017E
S31520000C40000201020202030200030103020303035E
S31520000C50000401040204030400050105020503053E
S31520000C60000601060206030600070107020703071E
S31520000C7000080108020803080009010902090309FE
S31520000C80000A010A020A030A000B010B020B030BDE
S31520000C90000C010C020C030C000D010D020D030DBE
S31520000CA0000E010E020E030E000F010F020F030F9E
S31520000CB0001001100210031000110111021103117E
S31520000CC0001201120212031200130113021303135E
S31520000CD0001401140214031400150115021503153E
S31520000CE0001601160216031600170117021703171E
S31520000CF00018011802180318240C00200000000018
S31520000D000000000001000000200000000108002073
S31520000D105F0800207D090020BD080020240C00204B
S31520000D2000000000000000007C0000002000000001
S31520000D30010800205F0800207D090020BD08002052
S31520000D40FFFFFFFFC2060020CC060020D6060020AB
S31520000D50E0060020EA060020F4060020FE06002019
S31520000D6008070020F6090020FE090020060A0020B8
S31520000D700E0A0020160A00200102030A0405060BAB
S30D20000D800708090C0E000F0DF7
S70520000000DA
