S01800002E2F44656275672F7265616C5F706F6E672E733139B2
S315200000000248854600F028F8FEE7C04600C00120D9
S3152000001080B500AF0B4B0C4A1A600C4BAA22D205B6
S315200000201A600B4B0A4A128892B21A80084B084A69
S31520000030128892B21A80074BAA2212041A60C0466E
S31520000040BD4680BD0010024055555555000C024056
S31520000050040C02400C0C024080B586B000AF3D4B2C
S315200000603B613D4BFB603D4BBB60FFF7D1FF00F092
S31520000070F3FA00F01FFB00F035FF042000F084F9AE
S315200000803B691B6A386904220421984700F04AFD1F
S3152000009003007B60FB681B6AF868002200219847F2
S315200000A0BB681B6AB8680022002198471723FB18F3
S315200000B000221A7035E01723FB181B787A68D318AC
S315200000C01B78042B10D002DC012B05D022E00C2B50
S315200000D011D00D2B17D01DE0FB681B6A052252425A
S315200000E0F8680021984715E0FB681B6AF868052226
S315200000F0002198470EE0BB681B6A05225242B86869
S315200001000021984706E0BB681B6AB86805220021D3
S315200001109847C0461723FB181A781723FB18013275
S315200001201A701723FB181B78032BC4D93B69DB698C
S315200001303A6910009847FB68DB69FA68100098470F
S31520000140BB68DB69BA68100098471E2000F04EFC99
S315200001509CE7C0467C1000207411002098110020D6
S3152000016090B591B000AF78607B68180000F0C7FBAF
S315200001707B68DA687B685B68D2187B68DA607B68A4
S315200001801A697B689B68D2187B681A617B681B6931
S31520000190002B08DA7B6800221A617B689B685A422A
S315200001A07B689A600BE07B681B693F2B07DD7B68C9
S315200001B03F221A617B689B685A427B689A60604B33
S315200001C07B63604B3B637B68DA687B6BD9687B6BB0
S315200001D01B685B68CB189A4254DC7B681A697B6B78
S315200001E01B699A4218DB7B681A697B6B19697B6BE2
S315200001F01B689B68CB189A420EDC7B6BDA687B6B9C
S315200002001B685B68D3185A1C7B68DA607B685B685E
S315200002105A427B685A6035E0022000F0D7FC012163
S31520000220012000F099FE1C23FB18474A13CA13C36A
S31520000230116819609188998092799A711C23FB180C
S31520000240FB6306E0FB6B5A1CFA631B78180000F070
S3152000025065FEFB6B1B78002BF4D1042000F094F88C
S31520000260FA235B00180000F0C1FB7B683F22DA60AE
S315200002707B685B685A427B685A607B689B685A42F7
S315200002807B689A607B68DA683B6BDB689A424EDB58
S315200002907B681A693B6B1B699A4214DB7B681A6977
S315200002A03B6B19693B6B1B689B68CB189A420ADC2F
S315200002B03B6BDB685A1E7B68DA607B685B685A4258
S315200002C07B685A6033E0022000F080FC0121012087
S315200002D000F042FE0823FB181C4A13CA13C31168F8
S315200002E0196012791A710823FB18BB6306E0BB6BF1
S315200002F05A1CBA631B78180000F010FEBB6B1B78E3
S31520000300002BF4D1042000F03FF8FA235B001800FC
S3152000031000F06CFB7B683F22DA607B685B685A42A0
S315200003207B685A607B689B685A427B689A607B68C8
S315200003305B697A6810009847C046BD4611B090BDEB
S315200003407411002098110020C0110020D411002023
S3152000035080B582B000AF0200FB1D1A700949094B17
S315200003601B78DBB25AB2FB1D1B785BB20420834399
S315200003705BB213435BB2DBB20B70C046BD4602B024
S3152000038080BDC0461410024080B582B000AF020086
S31520000390FB1D1A700849084B1B78DBB25BB2FA1DAD
S315200003A0127852B2D24352B213405BB2DBB20B7018
S315200003B0C046BD4602B080BD1410024080B582B052
S315200003C000AF0200FB1D1A70FB1D1B78002B06D107
S315200003D00820FFF7D9FF1020FFF7D6FF1FE0FB1DEF
S315200003E01B78182B06D10820FFF7B2FF1020FFF745
S315200003F0AFFF14E0FB1D1B78082B06D10820FFF762
S31520000400A7FF1020FFF7C0FF09E0FB1D1B78102B6C
S3152000041005D10820FFF7B8FF1020FFF799FFC04647
S31520000420BD4602B080BD80B582B000AF4020FFF748
S31520000430ABFF154B154A1A600120FFF7A5FF0220D6
S31520000440FFF786FF00F0E1FA4020FFF781FF00F07A
S31520000450DCFA0F4AFB1D12781A704020FFF794FF32
S3152000046000F0D3FAFB1D1B785BB2002B00DAEBE71A
S31520000470C0464020FFF76CFF034B064A1A60C04671
S31520000480BD4602B080BDC046001002405555000052
S31520000490111002405555555580B584B000AF020065
S315200004A0FB1D1A704020FFF76FFF1B4B1B4A1A607B
S315200004B00320FFF74DFFFB1D1B781800FFF77EFF7B
S315200004C000F0A3FA4020FFF743FF00F09EFA144AFB
S315200004D00F23FB1812781A704020FFF755FF0E4B9A
S315200004E0104A1A60FB1D1B78082B04D10820FFF741
S315200004F065FFFFF798FFFB1D1B78102B04D11020FA
S31520000500FFF75CFFFFF78FFF0F23FB181B78180000
S31520000510BD4604B080BDC0460010024055550000BF
S31520000520111002405555555580B582B000AF0200D6
S31520000530FB1D1A70BB1D0A1C1A701A4AFB1D1B785C
S315200005401370BB1D1B781800FFF738FF00F05DFA0B
S315200005504020FFF7FDFE00F058FA4020FFF714FF79
S31520000560BB1D1B780822134004D00820FFF726FF66
S31520000570FFF759FFBB1D1B781022134004D0102013
S31520000580FFF71CFFFFF74FFF064B00221A70402093
S31520000590FFF7DEFE0020FFF711FFC046BD4602B082
S315200005A080BDC0461510024080B582B000AF020063
S315200005B0FB1D1A70BB1D0A1C1A704020FFF7E4FEB3
S315200005C0BB1D1B781800FFF7F9FE0320FFF7DCFEA2
S315200005D0BB1D1A78FB1D1B7811001800FFF7A4FF1E
S315200005E0C046BD4602B080BD80B582B000AF0200D5
S315200005F0FB1D1A70BB1D0A1C1A704020FFF7C4FE93
S31520000600BB1D1B781800FFF7D9FE0120FFF7A0FEBF
S315200006100220FFF7B9FEBB1D1A78FB1D1B781100BF
S315200006201800FFF781FFC046BD4602B080BD80B5E9
S3152000063082B000AF0200FB1D1A70FB1D1B7818004C
S31520000640FFF72AFFFB1D1B781800FFF725FF030085
S315200006501800BD4602B080BD80B500AF4020FFF730
S3152000066077FE0420FFF774FE0A2000F0A9F978200F
S31520000670FFF78AFE1E2000F0B9F92020FFF768FE5A
S3152000068018213E20FFF790FF18213F20FFF78CFF0F
S315200006901821C020FFF788FF18214020FFF784FF8C
S315200006A01821B820FFF780FF0020FFF787FEC046FD
S315200006B0BD4680BD80B582B000AF00237B601EE0C2
S315200006C07B685BB24822524213435BB2DBB21821ED
S315200006D01800FFF769FF18214020FFF765FF002368
S315200006E03B6006E018210020FFF77EFF3B680133C0
S315200006F03B603B683F2BF5DD7B6801337B607B6885
S31520000700072BDDDDC046BD4602B080BD90B585B065
S3152000071000AF040008001100FB1D221C1A70BB1D2F
S31520000720021C1A707B1D0A1C1A70FB1D1B785BB2FB
S31520000730002B00DAAEE0BB1D1B783F2B00D9A9E0C9
S315200007400D23FB18BA1D1278D2081A70BB1D1B7810
S3152000075007221340072B2CD89A00504BD3181B681E
S315200007609F460F23FB1801221A7022E00F23FB1845
S3152000077002221A701DE00F23FB1804221A7018E0BB
S315200007800F23FB1808221A7013E00F23FB181022E0
S315200007901A700EE00F23FB1820221A7009E00F238F
S315200007A0FB1840221A7004E00F23FB1880221A70CF
S315200007B0C0467B1D1B78002B06D10F23FB180F226A
S315200007C0BA181278D2431A70FB1D1B783F2B09D911
S315200007D00E23FB1810221A70FB1DFA1D1278403AC0
S315200007E01A7003E00E23FB1808221A70FB1D1B78D3
S315200007F040221343DAB20E23FB181B78190010008F
S31520000800FFF7D2FE0D23FB181B78482252421343D2
S31520000810DAB20E23FB181B7819001000FFF7C4FE6E
S315200008200C23FC180E23FB181B781800FFF7FFFE7D
S3152000083003002370FB1D1B7840221343DAB20E23DC
S31520000840FB181B7819001000FFF7AEFE7B1D1B78E6
S31520000850002B0AD00F23FB180F22B9180C22BA1826
S31520000860097812780A431A7009E00F23FB180F2221
S31520000870BA180C217918127809780A401A700E23B2
S31520000880FB181A780F23FB181B7811001800FFF7A6
S31520000890ABFE00E0C046BD4605B090BDE811002085
S315200008A080B584B000AF78600023FB6020E07B68D1
S315200008B01A68FB6804335B00D31804331A787B6804
S315200008C0DB68DBB2D318D8B27B681A68FB680433BE
S315200008D05B00D31805331A787B681B69DBB2D31803
S315200008E0DBB201221900FFF711FFFB680133FB6021
S315200008F0FB68632BDBDDC046BD4604B080BD80B5FA
S3152000090084B000AF78600023FB6020E07B681A6823
S31520000910FB6804335B00D31804331A787B68DB68E2
S31520000920DBB2D318D8B27B681A68FB6804335B0045
S31520000930D31805331A787B681B69DBB2D318DBB270
S3152000094000221900FFF7E2FEFB680133FB60FB681B
S31520000950632BDBDDC046BD4604B080BD80B584B0C8
S3152000096000AFF860B9607A60FB68BA685A60FB68C5
S315200009707A689A60C046BD4604B080BD80B500AF97
S315200009800C4B00221A600C4B31221A600B4B0022B2
S315200009901A60084B05221A60C046064B1A68802347
S315200009A05B021340F9D0034B00221A60C046BD46B5
S315200009B080BDC04610E000E014E000E018E000E052
S315200009C080B582B000AF786007E0FFF7D7FFFFF76A
S315200009D0D5FFFFF7D3FFFFF7D1FF7B685A1E7A605A
S315200009E0002BF2D1C046BD4602B080BD80B582B094
S315200009F000AF78607B68FA22920053431800FFF715
S31520000A00DFFFC046BD4602B080BD80B500AFFFF710
S31520000A10B5FFFFF7B3FFC046BD4680BD80B582B0A7
S31520000A2000AF78607B681800FFF769FF7B681A695A
S31520000A307B689B68D2187B681A617B681B69002BD0
S31520000A4003DA7B6800221A610EE07B681A697B68EC
S31520000A501B689B68D3183F2B06DD7B681B689B6849
S31520000A603F22D21A7B681A617B685B697A6810001C
S31520000A709847C046BD4602B080BD000080B582B012
S31520000A8000AF78607B68042B19D87B689A000E4BE0
S31520000A90D3181B689F460D4B00221A700FE00B4B94
S31520000AA010221A700BE0094B20221A7007E0074B20
S31520000AB040221A7003E0054B80221A70C046C046B9
S31520000AC0BD4602B080BDC04608120020150C02406B
S31520000AD080B582B000AF124AFB1D12781A70FB1D3A
S31520000AE01B780122134001D0012315E0FB1D1B7842
S31520000AF00222134001D002230EE0FB1D1B780422A4
S31520000B00134001D0032307E0FB1D1B780822134066
S31520000B1001D0042300E000231800BD4602B080BDAA
S31520000B20110C024090B587B000AF3B1D254A13CA71
S31520000B3013C312681A601723FB1801221A7033E0B8
S31520000B401723FB181B781800FFF798FFFFF716FFEF
S31520000B501623FC18FFF7BCFF030023701623FB188F
S31520000B601B78002B12D01723FB181B78013B17226A
S31520000B70BA181278013A91001622BA181278013A58
S31520000B808A18391D895C104AD15406E01723FB18B0
S31520000B901B78013B0C4AFF21D1541723FB181A78E6
S31520000BA01723FB1801321A701723FB181B78042B06
S31520000BB0C6D90020FFF762FF034B1800BD4607B0D9
S31520000BC090BDC0461C120020BC11002080B582B00A
S31520000BD000AF78607B68072B4ED87B689A00284B3D
S31520000BE0D3181B689F46274A264B1B78DBB2012168
S31520000BF00B43DBB213703FE0224A224B1B78DBB259
S31520000C0002210B43DBB2137036E01E4A1D4B1B78C4
S31520000C10DBB204210B43DBB213702DE0194A194BCA
S31520000C201B78DBB208210B43DBB2137024E0154A94
S31520000C30144B1B78DBB210210B43DBB213701BE085
S31520000C40104A104B1B78DBB220210B43DBB213700A
S31520000C5012E00C4A0B4B1B78DBB240210B43DBB274
S31520000C60137009E00749074B1B78DBB280225242FA
S31520000C701343DBB20B70C046C046BD4602B080BDF2
S31520000C802C1200201410024080B582B000AF78608C
S31520000C907B68072B4DD87B689A00284BD3181B6896
S31520000CA09F46274A264B1B78DBB201218B43DBB2BA
S31520000CB013703EE0224A224B1B78DBB202218B4383
S31520000CC0DBB2137035E01E4A1D4B1B78DBB20421C4
S31520000CD08B43DBB213702CE0194A194B1B78DBB21D
S31520000CE008218B43DBB2137023E0154A144B1B7883
S31520000CF0DBB210218B43DBB213701AE0104A104B83
S31520000D001B78DBB220218B43DBB2137011E00C4A37
S31520000D100B4B1B78DBB240218B43DBB2137008E010
S31520000D20074A074B1B78DBB27F210B40DBB21370DF
S31520000D30C046C046BD4602B080BDC0464C1200200B
S31520000D401410024080B582B000AF0200FB1D1A705D
S31520000D500620FFF73BFF064AFB1D1B781370FFF7A3
S31520000D600DFE0620FFF790FFC046BD4602B080BDAF
S31520000D701510024080B582B000AF0620FFF726FF8F
S31520000D80FFF7FCFDFFF7FAFD064AFB1D12781A70E5
S31520000D900620FFF779FFFB1D1B781800BD4602B021
S31520000DA080BDC0461110024080B582B000AF02005F
S31520000DB0FB1D1A700020FFF767FF0120FFF764FF75
S31520000DC0FB1D1B781800FFF7BDFFC046BD4602B0CD
S31520000DD080BD80B582B000AF0200FB1D1A700020D6
S31520000DE0FFF7F4FE0120FFF74FFFFB1D1B781800CD
S31520000DF0FFF7A8FFC046BD4602B080BD90B583B0C0
S31520000E0000AF114B104A12681204120C1A6000200F
S31520000E10FFF73AFF0120FFF7D9FEFC1DFFF7AAFFD7
S31520000E2003002370084B084A12681204120C1A6039
S31520000E30054B054A126805490A431A60FB1D1B78B3
S31520000E401800BD4603B090BD001002400000555565
S31520000E5090B583B000AF114B104A12681204120CE1
S31520000E601A600020FFF7B2FE0120FFF7AFFEFC1D3F
S31520000E70FFF780FF03002370084B084A126812040C
S31520000E80120C1A60054B054A126805490A431A6076
S31520000E90FB1D1B781800BD4603B090BD0010024014
S31520000EA00000555580B582B000AF02003960FB1DA9
S31520000EB01A70C046FFF7A2FF03001A0080231340D2
S31520000EC0802BF7D00820FFF77BFDFB1D1B78180031
S31520000ED0FFF76AFF3B681800FFF772FDC046BD4664
S31520000EE002B080BD80B500AF0220FFF76FFE28213B
S31520000EF03820FFF7D7FF28210E20FFF7D3FF064B18
S31520000F0019000120FFF7CEFF28210620FFF7CAFF90
S31520000F10C046BD4680BDC046FA05000080B582B0F9
S31520000F2000AF0200FB1D1A70C046FFF767FF0300E3
S31520000F301A0080231340802BF7D00820FFF740FDAE
S31520000F40FB1D1B781800FFF744FF2D20FFF738FD07
S31520000F50C046BD4602B080BD80B584B000AF020059
S31520000F60FB1D1A70BB1D0A1C1A700F23FB18FA1DD5
S31520000F701278013A1A70BB1D1B78022B06D10F235B
S31520000F80FB180F22BA18127840321A700F23FB185A
S31520000F901B78802252421343DBB21800FFF704FF6E
S31520000FA0C046BD4604B080BD0C0000000400000011
S31520000FB004000000000100020100010101020103FA
S31520000FC002000201020202030301030200000000E4
S31520000FD000000000000000000000000000000000EB
S31520000FE000000000000000000000000000000000DB
S31520000FF000000000000000000000000000000000CB
S3152000100000000000000000000000000000000000BA
S3152000101000000000000000000000000000000000AA
S31520001020000000000000000000000000000000009A
S31520001030000000000000000000000000000000008A
S31520001040000000000000000000000000000000007A
S31520001050000000000000000000000000000000006A
S31520001060000000000000000000000000000000005A
S31520001070000000000000000000000000A80F002073
S3152000108000000000000000003F00000020000000DB
S31520001090A1080020FF080020610100205D09002032
S315200010A06400000004000000190000000000010098
S315200010B002000300000101010201030100020102F6
S315200010C002020302000301030203030300040104D6
S315200010D002040304000501050205030500060106B6
S315200010E00206030600070107020703070008010896
S315200010F0020803080009010902090309000A010A76
S31520001100020A030A000B010B020B030B000C010C55
S31520001110020C030C000D010D020D030D000E010E35
S31520001120020E030E000F010F020F030F0010011015
S3152000113002100310001101110211031100120112F5
S3152000114002120312001301130213031300140114D5
S3152000115002140314001501150215031500160116B5
S315200011600216031600170117021703170018011895
S3152000117002180318A0100020000000000000000044
S315200011800100000020000000A1080020FF08002028
S315200011901D0A00205D090020A0100020000000008C
S315200011A0000000007C00000020000000A1080020B4
S315200011B0FF0800201D0A00205D090020FFFFFFFF19
S315200011C0526967687420706C6179657220776F6EDA
S315200011D0212000004C65667420706C617965722050
S315200011E0776F6E2100000000620700206C07002048
S315200011F076070020800700208A0700209407002019
S315200012009E070020A8070020960A00209E0A00209C
S31520001210A60A0020AE0A0020B60A00200102030A10
S315200012200405060B0708090C0E000F0DE60B00201F
S31520001230F80B00200A0C00201C0C00202E0C00208D
S31520001240400C0020520C0020640C0020A20C002030
S31520001250B40C0020C60C0020D80C0020EA0C00207C
S31120001260FC0C00200E0D0020200D0020AC
S70520000000DA
