S01800002E2F44656275672F7265616C5F706F6E672E733139B2
S315200000000248854600F010F8FEE7C04600C00120F1
S3152000001080B500AF024B034A1A60C046BD4680BD7C
S31520000020001002405555555580B582B000AF0A4B99
S315200000307B60FFF7EDFF00F0C1F97B681B6A7868EB
S315200000401022102198477B68DB697A681000984750
S31520000050012000F07BFBF6E70408002080B582B083
S3152000006000AF78607B68180000F0F9FA7B68DA68E0
S315200000707B685B68D2187B68DA607B681A697B6864
S315200000809B68D2187B681A617B681B69002B03DB8F
S315200000907B681B693F2B04DD7B689B685A427B6823
S315200000A09A607B685B697A6810009847C046BD46AF
S315200000B002B080BD80B582B000AF0200FB1D1A7071
S315200000C00949094B1B78DBB25AB2FB1D1B785BB280
S315200000D0042083435BB213435BB2DBB20B70C04692
S315200000E0BD4602B080BDC0461410024080B582B025
S315200000F000AF0200FB1D1A700849084B1B78DBB2C3
S315200001005BB2FA1D127852B2D24352B213405BB29E
S31520000110DBB20B70C046BD4602B080BD1410024053
S3152000012080B582B000AF0200FB1D1A70FB1D1B7844
S31520000130002B06D10820FFF7D9FF1020FFF7D6FFA6
S315200001401FE0FB1D1B78182B06D10820FFF7B2FFF6
S315200001501020FFF7AFFF14E0FB1D1B78082B06D1FC
S315200001600820FFF7A7FF1020FFF7C0FF09E0FB1DBF
S315200001701B78102B05D10820FFF7B8FF1020FFF7BA
S3152000018099FFC046BD4602B080BD80B582B000AFA3
S315200001904020FFF7ABFF154B154A1A600120FFF7E9
S315200001A0A5FF0220FFF786FF00F0DCFA4020FFF7CC
S315200001B081FF00F0D7FA4020FFF798FF00F0D2FA2F
S315200001C00C4AFB1D12781A700A4B1B78DBB25BB205
S315200001D0002B00DAEAE7C0464020FFF76BFF034B0F
S315200001E0054A1A60C046BD4602B080BD00100240D6
S315200001F055550000111002405555555580B584B00F
S3152000020000AF0200FB1D1A704020FFF76FFF1B4B4B
S315200002101B4A1A600320FFF74DFFFB1D1B781800B1
S31520000220FFF77EFF00F09EFA4020FFF743FF00F025
S3152000023099FA144A0F23FB1812781A704020FFF7F8
S3152000024055FF0E4B104A1A60FB1D1B78082B04D154
S315200002500820FFF765FFFFF798FFFB1D1B78102B83
S3152000026004D11020FFF75CFFFFF78FFF0F23FB1849
S315200002701B781800BD4604B080BDC0460010024061
S3152000028055550000111002405555555580B582B080
S3152000029000AF0200FB1D1A70BB1D0A1C1A701A4AF9
S315200002A0FB1D1B781370BB1D1B781800FFF738FF4A
S315200002B000F058FA4020FFF7FDFE00F053FA4020E8
S315200002C0FFF714FFBB1D1B780822134004D008201B
S315200002D0FFF726FFFFF759FFBB1D1B78102213409F
S315200002E004D01020FFF71CFFFFF74FFF064B00221C
S315200002F01A704020FFF7DEFE0020FFF711FFC046F0
S31520000300BD4602B080BDC0461510024080B582B001
S3152000031000AF0200FB1D1A70BB1D0A1C1A7040207C
S31520000320FFF7E4FEBB1D1B781800FFF7F9FE03203C
S31520000330FFF7DCFEBB1D1A78FB1D1B781100180089
S31520000340FFF7A4FFC046BD4602B080BD80B582B08F
S3152000035000AF0200FB1D1A70BB1D0A1C1A7040203C
S31520000360FFF7C4FEBB1D1B781800FFF7D9FE01203E
S31520000370FFF7A0FE0220FFF7B9FEBB1D1A78FB1D72
S315200003801B7811001800FFF781FFC046BD4602B05A
S3152000039080BD80B582B000AF0200FB1D1A70FB1D28
S315200003A01B781800FFF72AFFFB1D1B781800FFF7A4
S315200003B025FF03001800BD4602B080BD80B500AF02
S315200003C04020FFF777FE0A2000F0AAF97820FFF7F1
S315200003D08DFE1E2000F0BAF92020FFF76BFE1821B3
S315200003E03E20FFF793FF18213F20FFF78FFF1821AC
S315200003F0C020FFF78BFF18214020FFF787FF182129
S31520000400B820FFF783FF0020FFF78AFEC046BD46CF
S3152000041080BD80B582B000AF00237B601EE07B6884
S315200004205BB24822524213435BB2DBB2182118005A
S31520000430FFF76CFF18214020FFF768FF00233B6081
S3152000044006E018210020FFF781FF3B6801333B605F
S315200004503B683F2BF5DD7B6801337B607B68072B90
S31520000460DDDDC046BD4602B080BD90B585B000AF8B
S31520000470040008001100FB1D221C1A70BB1D021C63
S315200004801A707B1D0A1C1A70FB1D1B785BB2002B91
S3152000049000DAAEE0BB1D1B783F2B00D9A9E00D2367
S315200004A0FB18BA1D1278D2081A70BB1D1B780722BA
S315200004B01340072B2CD89A00504BD3181B689F4605
S315200004C00F23FB1801221A7022E00F23FB180222A9
S315200004D01A701DE00F23FB1804221A7018E00F2350
S315200004E0FB1808221A7013E00F23FB1810221A702B
S315200004F00EE00F23FB1820221A7009E00F23FB18A9
S3152000050040221A7004E00F23FB1880221A70C0467E
S315200005107B1D1B78002B06D10F23FB180F22BA1840
S315200005201278D2431A70FB1D1B783F2B09D90E2354
S31520000530FB1810221A70FB1DFA1D1278403A1A7009
S3152000054003E00E23FB1808221A70FB1D1B7840229D
S315200005501343DAB20E23FB181B7819001000FFF79D
S31520000560D5FE0D23FB181B78482252421343DAB2DC
S315200005700E23FB181B7819001000FFF7C7FE0C236B
S31520000580FC180E23FB181B781800FFF702FF030048
S315200005902370FB1D1B7840221343DAB20E23FB186F
S315200005A01B7819001000FFF7B1FE7B1D1B78002B6E
S315200005B00AD00F23FB180F22B9180C22BA18097873
S315200005C012780A431A7009E00F23FB180F22BA1873
S315200005D00C217918127809780A401A700E23FB1814
S315200005E01A780F23FB181B7811001800FFF7AEFEB0
S315200005F000E0C046BD4605B090BDC046A408002018
S3152000060080B584B000AF78600023FB6020E07B6873
S315200006101A68FB6804335B00D31804331A787B68A6
S31520000620DB68DBB2D318D8B27B681A68FB68043360
S315200006305B00D31805331A787B681B69DBB2D318A5
S31520000640DBB201221900FFF710FFFB680133FB60C4
S31520000650FB68132BDBDDC046BD4604B080BD80B5EC
S3152000066084B000AF78600023FB6020E07B681A68C6
S31520000670FB6804335B00D31804331A787B68DB6885
S31520000680DBB2D318D8B27B681A68FB6804335B00E8
S31520000690D31805331A787B681B69DBB2D318DBB213
S315200006A000221900FFF7E1FEFB680133FB60FB68BF
S315200006B0132BDBDDC046BD4604B080BD80B584B0BB
S315200006C000AFF860B9607A60FB68BA685A60FB6868
S315200006D07A689A60C046BD4604B080BD80B500AF3A
S315200006E00C4B00221A600C4B31221A600B4B002255
S315200006F01A60084B05221A60C046064B1A688023EA
S315200007005B021340F9D0034B00221A60C046BD4657
S3152000071080BDC04610E000E014E000E018E000E0F4
S3152000072080B582B000AF786007E0FFF7D7FFFFF70C
S31520000730D5FFFFF7D3FFFFF7D1FF7B685A1E7A60FC
S31520000740002BF2D1C046BD4602B080BD80B582B036
S3152000075000AF78607B681800FFF7E2FFC046BD4611
S3152000076002B080BD80B500AFFFF7B8FFFFF7B6FF38
S31520000770C046BD4680BDC04680B582B000AF786019
S315200007807B681800FFF76BFF7B681A697B689B689C
S31520000790D2187B681A617B681B69002B03DA7B6899
S315200007A000221A610AE07B681A697B681B689B68CD
S315200007B0D3187F2B02DD7B687F221A617B685B69F9
S315200007C07A6810009847C046BD4602B080BD00003A
S315200007D00C000000040000000400000000010002DC
S315200007E001000101010201030200020102020203CB
S315200007F003010302000000000000000000000000CA
S3152000080000000000D00700200000000000000000CB
S315200008100100000001000000010600205F06002004
S315200008205D000020BD0600200C0000000400000032
S315200008300400000000010002010001010102010381
S31520000840020002010202020303010302000000006B
S315200008500000000000000000000000002808002022
S315200008600000000000000000010000000100000060
S31520000870010600205F06002079070020BD06002023
S3152000088028080020000000000000000001000000F1
S3152000089001000000010600205F06002079070020E5
S315200008A0BD060020C0040020CA040020D404002075
S315200008B0DE040020E8040020F2040020FC040020CE
S309200008C006050020E3
S70520000000DA
