S01400002E2F44656275672F64656C61792E7331395E
S315200000000248854600F08AF8FEE7C04600C0012077
S3152000001080B500AF154B154A1268120C12041A60EF
S31520000020124B124A126812490A431A60114A114B9E
S315200000301B889BB2FF218B439BB213800D4A0D4B2D
S315200000401B889BB277210B439BB213800A4B0A4A2B
S315200000501268120C12041A60074B074A12680749E5
S315200000600A431A60C046BD4680BDC0460010024005
S3152000007055550000041002400C100240AAAA0000A8
S3152000008080B500AF0C4B00221A600C4B00221A6080
S315200000900B4B31221A60084B01221A60C046064BD0
S315200000A01A6880235B021340F9D0034B00221A60A2
S315200000B0C046BD4680BDC04610E000E018E000E026
S315200000C014E000E080B584B000AF78600023FB60C8
S315200000D002E0FB680133FB60FA687B689A42F8D33A
S315200000E0C046BD4604B080BD80B582B000AF786002
S315200000F07A68FA239900100000F028F803007B6044
S315200001007B6801337B607B68FA2292005343180098
S31520000110FFF7D8FFC046BD4602B080BD80B500AF10
S31520000120FFF776FF084B00221A70FA235B001800AF
S31520000130FFF7DAFF044BFF221A70FA235B00180040
S31520000140FFF7D2FFEEE7C046141002400022430814
S315200001508B4274D303098B425FD3030A8B4244D369
S31520000160030B8B4228D3030C8B420DD3FF220902AB
S3152000017012BA030C8B4202D31212090265D0030B6A
S315200001808B4219D300E0090AC30B8B4201D3CB0360
S31520000190C01A5241830B8B4201D38B03C01A5241A2
S315200001A0430B8B4201D34B03C01A5241030B8B42A4
S315200001B001D30B03C01A5241C30A8B4201D3CB028F
S315200001C0C01A5241830A8B4201D38B02C01A524174
S315200001D0430A8B4201D34B02C01A5241030A8B4277
S315200001E001D30B02C01A5241CDD2C3098B4201D38F
S315200001F0CB01C01A524183098B4201D38B01C01A0D
S31520000200524143098B4201D34B01C01A5241030983
S315200002108B4201D30B01C01A5241C3088B4201D332
S31520000220CB00C01A524183088B4201D38B00C01ADF
S31520000230524143088B4201D34B00C01A5241411A06
S3152000024000D20146524110467047FFE701B5002013
S3152000025000F006F802BDC0460029F7D076E77047C1
S309200002607047C046B7
S70520000000DA
