S01400002E2F44656275672F64656C61792E7331395E
S315200000000248854600F080F8FEE7C04600C0012081
S3152000001080B500AF154B154A1268120C12041A60EF
S31520000020124B124A126812490A431A60114A114B9E
S315200000301B889BB2FF218B439BB213800D4A0D4B2D
S315200000401B889BB277210B439BB213800A4B0A4A2B
S315200000501268120C12041A60074B074A12680749E5
S315200000600A431A60C046BD4680BDC0460010024005
S3152000007055550000041002400C100240AAAA0000A8
S3152000008080B500AF0C4B00221A600C4B31221A604F
S315200000900B4B00221A60084B05221A60C046064BFD
S315200000A01A6880235B021340F9D0034B00221A60A2
S315200000B0C046BD4680BDC04610E000E014E000E02A
S315200000C018E000E080B582B000AF786007E0FFF767
S315200000D0D7FFFFF7D5FFFFF7D3FFFFF7D1FF7B68E9
S315200000E05A1E7A60002BF2D1C046BD4602B080BDB2
S315200000F080B582B000AF78607B681800FFF7E2FF1A
S31520000100C046BD4602B080BD80B500AFFFF780FF78
S31520000110084B00221A70FA235B001800FFF7E8FF4D
S31520000120044BFF221A70FA235B001800FFF7E0FF4A
S30D20000130EEE7C0461410024060
S70520000000DA
